{
  "address": "0x4Ac1d98D9cEF99EC6546dEd4Bd550b0b287aaD6D",
  "abi": [
    {
      "inputs": [],
      "stateMutability": "nonpayable",
      "type": "constructor"
    },
    {
      "inputs": [],
      "name": "AlreadyOwned",
      "type": "error"
    },
    {
      "inputs": [
        {
          "internalType": "address",
          "name": "sender",
          "type": "address"
        },
        {
          "internalType": "uint256",
          "name": "tokenId",
          "type": "uint256"
        },
        {
          "internalType": "address",
          "name": "owner",
          "type": "address"
        }
      ],
      "name": "ERC721IncorrectOwner",
      "type": "error"
    },
    {
      "inputs": [
        {
          "internalType": "address",
          "name": "operator",
          "type": "address"
        },
        {
          "internalType": "uint256",
          "name": "tokenId",
          "type": "uint256"
        }
      ],
      "name": "ERC721InsufficientApproval",
      "type": "error"
    },
    {
      "inputs": [
        {
          "internalType": "address",
          "name": "approver",
          "type": "address"
        }
      ],
      "name": "ERC721InvalidApprover",
      "type": "error"
    },
    {
      "inputs": [
        {
          "internalType": "address",
          "name": "operator",
          "type": "address"
        }
      ],
      "name": "ERC721InvalidOperator",
      "type": "error"
    },
    {
      "inputs": [
        {
          "internalType": "address",
          "name": "owner",
          "type": "address"
        }
      ],
      "name": "ERC721InvalidOwner",
      "type": "error"
    },
    {
      "inputs": [
        {
          "internalType": "address",
          "name": "receiver",
          "type": "address"
        }
      ],
      "name": "ERC721InvalidReceiver",
      "type": "error"
    },
    {
      "inputs": [
        {
          "internalType": "address",
          "name": "sender",
          "type": "address"
        }
      ],
      "name": "ERC721InvalidSender",
      "type": "error"
    },
    {
      "inputs": [
        {
          "internalType": "uint256",
          "name": "tokenId",
          "type": "uint256"
        }
      ],
      "name": "ERC721NonexistentToken",
      "type": "error"
    },
    {
      "inputs": [],
      "name": "ErrLocked",
      "type": "error"
    },
    {
      "inputs": [],
      "name": "ErrNotFound",
      "type": "error"
    },
    {
      "inputs": [],
      "name": "InvalidData",
      "type": "error"
    },
    {
      "anonymous": false,
      "inputs": [
        {
          "indexed": true,
          "internalType": "address",
          "name": "owner",
          "type": "address"
        },
        {
          "indexed": true,
          "internalType": "address",
          "name": "approved",
          "type": "address"
        },
        {
          "indexed": true,
          "internalType": "uint256",
          "name": "tokenId",
          "type": "uint256"
        }
      ],
      "name": "Approval",
      "type": "event"
    },
    {
      "anonymous": false,
      "inputs": [
        {
          "indexed": true,
          "internalType": "address",
          "name": "owner",
          "type": "address"
        },
        {
          "indexed": true,
          "internalType": "address",
          "name": "operator",
          "type": "address"
        },
        {
          "indexed": false,
          "internalType": "bool",
          "name": "approved",
          "type": "bool"
        }
      ],
      "name": "ApprovalForAll",
      "type": "event"
    },
    {
      "anonymous": false,
      "inputs": [
        {
          "indexed": false,
          "internalType": "uint256",
          "name": "tokenId",
          "type": "uint256"
        }
      ],
      "name": "Locked",
      "type": "event"
    },
    {
      "anonymous": false,
      "inputs": [
        {
          "indexed": true,
          "internalType": "address",
          "name": "owner",
          "type": "address"
        },
        {
          "indexed": true,
          "internalType": "uint256",
          "name": "tokenId",
          "type": "uint256"
        },
        {
          "indexed": false,
          "internalType": "uint256",
          "name": "issueDate",
          "type": "uint256"
        }
      ],
      "name": "SBTCreated",
      "type": "event"
    },
    {
      "anonymous": false,
      "inputs": [
        {
          "indexed": true,
          "internalType": "address",
          "name": "from",
          "type": "address"
        },
        {
          "indexed": true,
          "internalType": "address",
          "name": "to",
          "type": "address"
        },
        {
          "indexed": true,
          "internalType": "uint256",
          "name": "tokenId",
          "type": "uint256"
        }
      ],
      "name": "Transfer",
      "type": "event"
    },
    {
      "anonymous": false,
      "inputs": [
        {
          "indexed": false,
          "internalType": "uint256",
          "name": "tokenId",
          "type": "uint256"
        }
      ],
      "name": "Unlocked",
      "type": "event"
    },
    {
      "inputs": [
        {
          "internalType": "address",
          "name": "approved",
          "type": "address"
        },
        {
          "internalType": "uint256",
          "name": "tokenId",
          "type": "uint256"
        }
      ],
      "name": "approve",
      "outputs": [],
      "stateMutability": "nonpayable",
      "type": "function"
    },
    {
      "inputs": [
        {
          "internalType": "address",
          "name": "owner",
          "type": "address"
        }
      ],
      "name": "balanceOf",
      "outputs": [
        {
          "internalType": "uint256",
          "name": "",
          "type": "uint256"
        }
      ],
      "stateMutability": "view",
      "type": "function"
    },
    {
      "inputs": [
        {
          "components": [
            {
              "internalType": "uint256",
              "name": "issueDate",
              "type": "uint256"
            },
            {
              "internalType": "string",
              "name": "name",
              "type": "string"
            },
            {
              "internalType": "string",
              "name": "surname",
              "type": "string"
            },
            {
              "internalType": "uint256",
              "name": "birthDate",
              "type": "uint256"
            },
            {
              "internalType": "string",
              "name": "birthPlace",
              "type": "string"
            }
          ],
          "internalType": "struct ISBT.SBTData",
          "name": "_data",
          "type": "tuple"
        }
      ],
      "name": "createSBT",
      "outputs": [],
      "stateMutability": "nonpayable",
      "type": "function"
    },
    {
      "inputs": [
        {
          "internalType": "uint256",
          "name": "tokenId",
          "type": "uint256"
        }
      ],
      "name": "getApproved",
      "outputs": [
        {
          "internalType": "address",
          "name": "",
          "type": "address"
        }
      ],
      "stateMutability": "view",
      "type": "function"
    },
    {
      "inputs": [
        {
          "internalType": "address",
          "name": "owner",
          "type": "address"
        }
      ],
      "name": "getSBTData",
      "outputs": [
        {
          "components": [
            {
              "internalType": "uint256",
              "name": "issueDate",
              "type": "uint256"
            },
            {
              "internalType": "string",
              "name": "name",
              "type": "string"
            },
            {
              "internalType": "string",
              "name": "surname",
              "type": "string"
            },
            {
              "internalType": "uint256",
              "name": "birthDate",
              "type": "uint256"
            },
            {
              "internalType": "string",
              "name": "birthPlace",
              "type": "string"
            }
          ],
          "internalType": "struct ISBT.SBTData",
          "name": "",
          "type": "tuple"
        }
      ],
      "stateMutability": "view",
      "type": "function"
    },
    {
      "inputs": [
        {
          "internalType": "address",
          "name": "",
          "type": "address"
        }
      ],
      "name": "hasSBT",
      "outputs": [
        {
          "internalType": "uint256",
          "name": "",
          "type": "uint256"
        }
      ],
      "stateMutability": "view",
      "type": "function"
    },
    {
      "inputs": [
        {
          "internalType": "address",
          "name": "owner",
          "type": "address"
        },
        {
          "internalType": "address",
          "name": "operator",
          "type": "address"
        }
      ],
      "name": "isApprovedForAll",
      "outputs": [
        {
          "internalType": "bool",
          "name": "",
          "type": "bool"
        }
      ],
      "stateMutability": "view",
      "type": "function"
    },
    {
      "inputs": [
        {
          "internalType": "uint256",
          "name": "tokenId",
          "type": "uint256"
        }
      ],
      "name": "locked",
      "outputs": [
        {
          "internalType": "bool",
          "name": "",
          "type": "bool"
        }
      ],
      "stateMutability": "view",
      "type": "function"
    },
    {
      "inputs": [],
      "name": "name",
      "outputs": [
        {
          "internalType": "string",
          "name": "",
          "type": "string"
        }
      ],
      "stateMutability": "view",
      "type": "function"
    },
    {
      "inputs": [],
      "name": "nextSBTId",
      "outputs": [
        {
          "internalType": "uint256",
          "name": "",
          "type": "uint256"
        }
      ],
      "stateMutability": "view",
      "type": "function"
    },
    {
      "inputs": [
        {
          "internalType": "uint256",
          "name": "tokenId",
          "type": "uint256"
        }
      ],
      "name": "ownerOf",
      "outputs": [
        {
          "internalType": "address",
          "name": "",
          "type": "address"
        }
      ],
      "stateMutability": "view",
      "type": "function"
    },
    {
      "inputs": [
        {
          "internalType": "address",
          "name": "from",
          "type": "address"
        },
        {
          "internalType": "address",
          "name": "to",
          "type": "address"
        },
        {
          "internalType": "uint256",
          "name": "tokenId",
          "type": "uint256"
        }
      ],
      "name": "safeTransferFrom",
      "outputs": [],
      "stateMutability": "nonpayable",
      "type": "function"
    },
    {
      "inputs": [
        {
          "internalType": "address",
          "name": "from",
          "type": "address"
        },
        {
          "internalType": "address",
          "name": "to",
          "type": "address"
        },
        {
          "internalType": "uint256",
          "name": "tokenId",
          "type": "uint256"
        },
        {
          "internalType": "bytes",
          "name": "data",
          "type": "bytes"
        }
      ],
      "name": "safeTransferFrom",
      "outputs": [],
      "stateMutability": "nonpayable",
      "type": "function"
    },
    {
      "inputs": [
        {
          "internalType": "address",
          "name": "",
          "type": "address"
        }
      ],
      "name": "sbts",
      "outputs": [
        {
          "internalType": "uint256",
          "name": "issueDate",
          "type": "uint256"
        },
        {
          "internalType": "string",
          "name": "name",
          "type": "string"
        },
        {
          "internalType": "string",
          "name": "surname",
          "type": "string"
        },
        {
          "internalType": "uint256",
          "name": "birthDate",
          "type": "uint256"
        },
        {
          "internalType": "string",
          "name": "birthPlace",
          "type": "string"
        }
      ],
      "stateMutability": "view",
      "type": "function"
    },
    {
      "inputs": [
        {
          "internalType": "address",
          "name": "operator",
          "type": "address"
        },
        {
          "internalType": "bool",
          "name": "approved",
          "type": "bool"
        }
      ],
      "name": "setApprovalForAll",
      "outputs": [],
      "stateMutability": "nonpayable",
      "type": "function"
    },
    {
      "inputs": [
        {
          "internalType": "bytes4",
          "name": "interfaceId",
          "type": "bytes4"
        }
      ],
      "name": "supportsInterface",
      "outputs": [
        {
          "internalType": "bool",
          "name": "",
          "type": "bool"
        }
      ],
      "stateMutability": "view",
      "type": "function"
    },
    {
      "inputs": [],
      "name": "symbol",
      "outputs": [
        {
          "internalType": "string",
          "name": "",
          "type": "string"
        }
      ],
      "stateMutability": "view",
      "type": "function"
    },
    {
      "inputs": [
        {
          "internalType": "uint256",
          "name": "tokenId",
          "type": "uint256"
        }
      ],
      "name": "tokenURI",
      "outputs": [
        {
          "internalType": "string",
          "name": "",
          "type": "string"
        }
      ],
      "stateMutability": "view",
      "type": "function"
    },
    {
      "inputs": [],
      "name": "totalSupply",
      "outputs": [
        {
          "internalType": "uint256",
          "name": "",
          "type": "uint256"
        }
      ],
      "stateMutability": "view",
      "type": "function"
    },
    {
      "inputs": [
        {
          "internalType": "address",
          "name": "from",
          "type": "address"
        },
        {
          "internalType": "address",
          "name": "to",
          "type": "address"
        },
        {
          "internalType": "uint256",
          "name": "tokenId",
          "type": "uint256"
        }
      ],
      "name": "transferFrom",
      "outputs": [],
      "stateMutability": "nonpayable",
      "type": "function"
    }
  ],
  "transactionHash": "0xb4735772253be30f8eed98a16cbc96a5a4a90949c087be679b94aeb39d05ac4b",
  "args": [],
  "numDeployments": 1,
  "solcInputHash": "21abb54ff2f7cd74c15c3cc9a931518b",
  "bytecode": "0x608060405260016007553480156200001657600080fd5b50604051806040016040528060078152602001660cd5950814d09560ca1b815250604051806040016040528060058152602001640cd594d09560da1b8152506001828281600090816200006a91906200013c565b5060016200007982826200013c565b50506006805460ff1916921515929092179091555062000208915050565b634e487b7160e01b600052604160045260246000fd5b600181811c90821680620000c257607f821691505b602082108103620000e357634e487b7160e01b600052602260045260246000fd5b50919050565b601f8211156200013757600081815260208120601f850160051c81016020861015620001125750805b601f850160051c820191505b8181101562000133578281556001016200011e565b5050505b505050565b81516001600160401b0381111562000158576200015862000097565b6200017081620001698454620000ad565b84620000e9565b602080601f831160018114620001a857600084156200018f5750858301515b600019600386901b1c1916600185901b17855562000133565b600085815260208120601f198616915b82811015620001d957888601518255948401946001909101908401620001b8565b5085821015620001f85787850151600019600388901b60f8161c191681555b5050505050600190811b01905550565b611a0580620002186000396000f3fe608060405234801561001057600080fd5b506004361061012c5760003560e01c806395694a18116100ad578063b79dee0d11610071578063b79dee0d146102a2578063b88d4fde146102b5578063c87b56dd146102c8578063e32cb02c146102db578063e985e9c5146102e457600080fd5b806395694a181461023057806395d89b4114610254578063a22cb4651461025c578063b33e50b01461026f578063b45a3c0e1461028f57600080fd5b806323b872dd116100f457806323b872dd146101c457806342842e0e146101d757806356a9c454146101ea5780636352211e1461020a57806370a082311461021d57600080fd5b806301ffc9a71461013157806306fdde0314610159578063081812fc1461016e578063095ea7b31461019957806318160ddd146101ae575b600080fd5b61014461013f366004611337565b6102f7565b60405190151581526020015b60405180910390f35b610161610322565b60405161015091906113a4565b61018161017c3660046113b7565b6103b4565b6040516001600160a01b039091168152602001610150565b6101ac6101a73660046113ec565b6103dd565b005b6101b661040f565b604051908152602001610150565b6101ac6101d2366004611416565b610425565b6101ac6101e5366004611416565b610459565b6101b66101f8366004611452565b60086020526000908152604090205481565b6101816102183660046113b7565b610474565b6101b661022b366004611452565b61047f565b61024361023e366004611452565b6104cc565b60405161015095949392919061146d565b610161610693565b6101ac61026a3660046114be565b6106a2565b61028261027d366004611452565b6106d0565b60405161015091906114fa565b61014461029d3660046113b7565b6108f6565b6101ac6102b0366004611644565b610937565b6101ac6102c336600461170d565b610a6f565b6101616102d63660046113b7565b610aa5565b6101b660075481565b6101446102f2366004611789565b610b1a565b60006001600160e01b03198216635a2d1e0760e11b148061031c575061031c82610b48565b92915050565b606060008054610331906117bc565b80601f016020809104026020016040519081016040528092919081815260200182805461035d906117bc565b80156103aa5780601f1061037f576101008083540402835291602001916103aa565b820191906000526020600020905b81548152906001019060200180831161038d57829003601f168201915b5050505050905090565b60006103bf82610b98565b506000828152600460205260409020546001600160a01b031661031c565b60065460ff16156104015760405163bd291a9560e01b815260040160405180910390fd5b61040b8282610bd1565b5050565b60006001600754610420919061180c565b905090565b60065460ff16156104495760405163bd291a9560e01b815260040160405180910390fd5b610454838383610bdc565b505050565b61045483838360405180602001604052806000815250610a6f565b600061031c82610b98565b60006001600160a01b0382166104b0576040516322718ad960e21b8152600060048201526024015b60405180910390fd5b506001600160a01b031660009081526003602052604090205490565b600960205260009081526040902080546001820180549192916104ee906117bc565b80601f016020809104026020016040519081016040528092919081815260200182805461051a906117bc565b80156105675780601f1061053c57610100808354040283529160200191610567565b820191906000526020600020905b81548152906001019060200180831161054a57829003601f168201915b50505050509080600201805461057c906117bc565b80601f01602080910402602001604051908101604052809291908181526020018280546105a8906117bc565b80156105f55780601f106105ca576101008083540402835291602001916105f5565b820191906000526020600020905b8154815290600101906020018083116105d857829003601f168201915b505050505090806003015490806004018054610610906117bc565b80601f016020809104026020016040519081016040528092919081815260200182805461063c906117bc565b80156106895780601f1061065e57610100808354040283529160200191610689565b820191906000526020600020905b81548152906001019060200180831161066c57829003601f168201915b5050505050905085565b606060018054610331906117bc565b60065460ff16156106c65760405163bd291a9560e01b815260040160405180910390fd5b61040b8282610c61565b6107026040518060a0016040528060008152602001606081526020016060815260200160008152602001606081525090565b6001600160a01b038216600090815260096020908152604091829020825160a0810190935280548352600181018054919284019161073f906117bc565b80601f016020809104026020016040519081016040528092919081815260200182805461076b906117bc565b80156107b85780601f1061078d576101008083540402835291602001916107b8565b820191906000526020600020905b81548152906001019060200180831161079b57829003601f168201915b505050505081526020016002820180546107d1906117bc565b80601f01602080910402602001604051908101604052809291908181526020018280546107fd906117bc565b801561084a5780601f1061081f5761010080835404028352916020019161084a565b820191906000526020600020905b81548152906001019060200180831161082d57829003601f168201915b505050505081526020016003820154815260200160048201805461086d906117bc565b80601f0160208091040260200160405190810160405280929190818152602001828054610899906117bc565b80156108e65780601f106108bb576101008083540402835291602001916108e6565b820191906000526020600020905b8154815290600101906020018083116108c957829003601f168201915b5050505050815250509050919050565b6000818152600260205260408120546001600160a01b03161561092c5760405163ae9a63f560e01b815260040160405180910390fd5b505060065460ff1690565b336000908152600860205260409020541561096557604051632b482ce360e11b815260040160405180910390fd5b602081015151158061097a5750604081015151155b1561099857604051635cb045db60e01b815260040160405180910390fd5b428152336000908152600960209081526040909120825181559082015182919060018201906109c7908261186d565b50604082015160028201906109dc908261186d565b5060608201516003820155608082015160048201906109fb908261186d565b5050600754336000818152600860205260409020829055610a1d925090610c6c565b600754815160405190815233907f6ee2096257d6233752ade4139b8ed66b09880263bc28ed2e88833b263c5ab3969060200160405180910390a360078054906000610a678361192d565b919050555050565b60065460ff1615610a935760405163bd291a9560e01b815260040160405180910390fd5b610a9f84848484610c86565b50505050565b6060610ab082610b98565b506000610ac860408051602081019091526000815290565b90506000815111610ae85760405180602001604052806000815250610b13565b80610af284610c9d565b604051602001610b03929190611946565b6040516020818303038152906040525b9392505050565b6001600160a01b03918216600090815260056020908152604080832093909416825291909152205460ff1690565b60006001600160e01b031982166380ac58cd60e01b1480610b7957506001600160e01b03198216635b5e139f60e01b145b8061031c57506301ffc9a760e01b6001600160e01b031983161461031c565b6000818152600260205260408120546001600160a01b03168061031c57604051637e27328960e01b8152600481018490526024016104a7565b61040b828233610d30565b6001600160a01b038216610c0657604051633250574960e11b8152600060048201526024016104a7565b6000610c13838333610d3d565b9050836001600160a01b0316816001600160a01b031614610a9f576040516364283d7b60e01b81526001600160a01b03808616600483015260248201849052821660448201526064016104a7565b61040b338383610e36565b61040b828260405180602001604052806000815250610ed5565b610c91848484610425565b610a9f84848484610ee8565b60606000610caa83611011565b600101905060008167ffffffffffffffff811115610cca57610cca61156f565b6040519080825280601f01601f191660200182016040528015610cf4576020820181803683370190505b5090508181016020015b600019016f181899199a1a9b1b9c1cb0b131b232b360811b600a86061a8153600a8504945084610cfe57509392505050565b61045483838360016110e9565b6000828152600260205260408120546001600160a01b0390811690831615610d6a57610d6a8184866111ef565b6001600160a01b03811615610da857610d876000856000806110e9565b6001600160a01b038116600090815260036020526040902080546000190190555b6001600160a01b03851615610dd7576001600160a01b0385166000908152600360205260409020805460010190555b60008481526002602052604080822080546001600160a01b0319166001600160a01b0389811691821790925591518793918516917fddf252ad1be2c89b69c2b068fc378daa952ba7f163c4a11628f55a4df523b3ef91a4949350505050565b6001600160a01b038216610e6857604051630b61174360e31b81526001600160a01b03831660048201526024016104a7565b6001600160a01b03838116600081815260056020908152604080832094871680845294825291829020805460ff191686151590811790915591519182527f17307eab39ab6107e8899845ad3d59bd9653f200f220920489ca2b5937696c31910160405180910390a3505050565b610edf8383611253565b61045460008484845b6001600160a01b0383163b15610a9f57604051630a85bd0160e11b81526001600160a01b0384169063150b7a0290610f2a903390889087908790600401611975565b6020604051808303816000875af1925050508015610f65575060408051601f3d908101601f19168201909252610f62918101906119b2565b60015b610fce573d808015610f93576040519150601f19603f3d011682016040523d82523d6000602084013e610f98565b606091505b508051600003610fc657604051633250574960e11b81526001600160a01b03851660048201526024016104a7565b805181602001fd5b6001600160e01b03198116630a85bd0160e11b1461100a57604051633250574960e11b81526001600160a01b03851660048201526024016104a7565b5050505050565b60008072184f03e93ff9f4daa797ed6e38ed64bf6a1f0160401b83106110505772184f03e93ff9f4daa797ed6e38ed64bf6a1f0160401b830492506040015b6d04ee2d6d415b85acef8100000000831061107c576d04ee2d6d415b85acef8100000000830492506020015b662386f26fc10000831061109a57662386f26fc10000830492506010015b6305f5e10083106110b2576305f5e100830492506008015b61271083106110c657612710830492506004015b606483106110d8576064830492506002015b600a831061031c5760010192915050565b80806110fd57506001600160a01b03821615155b156111bf57600061110d84610b98565b90506001600160a01b038316158015906111395750826001600160a01b0316816001600160a01b031614155b801561114c575061114a8184610b1a565b155b156111755760405163a9fbf51f60e01b81526001600160a01b03841660048201526024016104a7565b81156111bd5783856001600160a01b0316826001600160a01b03167f8c5be1e5ebec7d5bd14f71427d1e84f3dd0314c0f7b2291e5b200ac8c7c3b92560405160405180910390a45b505b5050600090815260046020526040902080546001600160a01b0319166001600160a01b0392909216919091179055565b6111fa8383836112b8565b610454576001600160a01b03831661122857604051637e27328960e01b8152600481018290526024016104a7565b60405163177e802f60e01b81526001600160a01b0383166004820152602481018290526044016104a7565b6001600160a01b03821661127d57604051633250574960e11b8152600060048201526024016104a7565b600061128b83836000610d3d565b90506001600160a01b03811615610454576040516339e3563760e11b8152600060048201526024016104a7565b60006001600160a01b038316158015906113165750826001600160a01b0316846001600160a01b031614806112f257506112f28484610b1a565b8061131657506000828152600460205260409020546001600160a01b038481169116145b949350505050565b6001600160e01b03198116811461133457600080fd5b50565b60006020828403121561134957600080fd5b8135610b138161131e565b60005b8381101561136f578181015183820152602001611357565b50506000910152565b60008151808452611390816020860160208601611354565b601f01601f19169290920160200192915050565b602081526000610b136020830184611378565b6000602082840312156113c957600080fd5b5035919050565b80356001600160a01b03811681146113e757600080fd5b919050565b600080604083850312156113ff57600080fd5b611408836113d0565b946020939093013593505050565b60008060006060848603121561142b57600080fd5b611434846113d0565b9250611442602085016113d0565b9150604084013590509250925092565b60006020828403121561146457600080fd5b610b13826113d0565b85815260a06020820152600061148660a0830187611378565b82810360408401526114988187611378565b905084606084015282810360808401526114b28185611378565b98975050505050505050565b600080604083850312156114d157600080fd5b6114da836113d0565b9150602083013580151581146114ef57600080fd5b809150509250929050565b60208152815160208201526000602083015160a0604084015261152060c0840182611378565b90506040840151601f198085840301606086015261153e8383611378565b92506060860151608086015260808601519150808584030160a0860152506115668282611378565b95945050505050565b634e487b7160e01b600052604160045260246000fd5b60405160a0810167ffffffffffffffff811182821017156115a8576115a861156f565b60405290565b600067ffffffffffffffff808411156115c9576115c961156f565b604051601f8501601f19908116603f011681019082821181831017156115f1576115f161156f565b8160405280935085815286868601111561160a57600080fd5b858560208301376000602087830101525050509392505050565b600082601f83011261163557600080fd5b610b13838335602085016115ae565b60006020828403121561165657600080fd5b813567ffffffffffffffff8082111561166e57600080fd5b9083019060a0828603121561168257600080fd5b61168a611585565b823581526020830135828111156116a057600080fd5b6116ac87828601611624565b6020830152506040830135828111156116c457600080fd5b6116d087828601611624565b604083015250606083013560608201526080830135828111156116f257600080fd5b6116fe87828601611624565b60808301525095945050505050565b6000806000806080858703121561172357600080fd5b61172c856113d0565b935061173a602086016113d0565b925060408501359150606085013567ffffffffffffffff81111561175d57600080fd5b8501601f8101871361176e57600080fd5b61177d878235602084016115ae565b91505092959194509250565b6000806040838503121561179c57600080fd5b6117a5836113d0565b91506117b3602084016113d0565b90509250929050565b600181811c908216806117d057607f821691505b6020821081036117f057634e487b7160e01b600052602260045260246000fd5b50919050565b634e487b7160e01b600052601160045260246000fd5b8181038181111561031c5761031c6117f6565b601f82111561045457600081815260208120601f850160051c810160208610156118465750805b601f850160051c820191505b8181101561186557828155600101611852565b505050505050565b815167ffffffffffffffff8111156118875761188761156f565b61189b8161189584546117bc565b8461181f565b602080601f8311600181146118d057600084156118b85750858301515b600019600386901b1c1916600185901b178555611865565b600085815260208120601f198616915b828110156118ff578886015182559484019460019091019084016118e0565b508582101561191d5787850151600019600388901b60f8161c191681555b5050505050600190811b01905550565b60006001820161193f5761193f6117f6565b5060010190565b60008351611958818460208801611354565b83519083019061196c818360208801611354565b01949350505050565b6001600160a01b03858116825284166020820152604081018390526080606082018190526000906119a890830184611378565b9695505050505050565b6000602082840312156119c457600080fd5b8151610b138161131e56fea2646970667358221220612eff23e73df8e0ee75ebe50bfe29f5cac7dadc883383c54b221a1947bb6b3164736f6c63430008140033",
  "devdoc": {
    "author": "exo404, simonemontella, valeriooconte",
    "details": "Estende ERC5192 per creare token legati permanentemente a un indirizzo",
    "errors": {
      "ERC721IncorrectOwner(address,uint256,address)": [
        {
          "details": "Indicates an error related to the ownership over a particular token. Used in transfers.",
          "params": {
            "owner": "Address of the current owner of a token.",
            "sender": "Address whose tokens are being transferred.",
            "tokenId": "Identifier number of a token."
          }
        }
      ],
      "ERC721InsufficientApproval(address,uint256)": [
        {
          "details": "Indicates a failure with the `operator`s approval. Used in transfers.",
          "params": {
            "operator": "Address that may be allowed to operate on tokens without being their owner.",
            "tokenId": "Identifier number of a token."
          }
        }
      ],
      "ERC721InvalidApprover(address)": [
        {
          "details": "Indicates a failure with the `approver` of a token to be approved. Used in approvals.",
          "params": {
            "approver": "Address initiating an approval operation."
          }
        }
      ],
      "ERC721InvalidOperator(address)": [
        {
          "details": "Indicates a failure with the `operator` to be approved. Used in approvals.",
          "params": {
            "operator": "Address that may be allowed to operate on tokens without being their owner."
          }
        }
      ],
      "ERC721InvalidOwner(address)": [
        {
          "details": "Indicates that an address can't be an owner. For example, `address(0)` is a forbidden owner in EIP-20. Used in balance queries.",
          "params": {
            "owner": "Address of the current owner of a token."
          }
        }
      ],
      "ERC721InvalidReceiver(address)": [
        {
          "details": "Indicates a failure with the token `receiver`. Used in transfers.",
          "params": {
            "receiver": "Address to which tokens are being transferred."
          }
        }
      ],
      "ERC721InvalidSender(address)": [
        {
          "details": "Indicates a failure with the token `sender`. Used in transfers.",
          "params": {
            "sender": "Address whose tokens are being transferred."
          }
        }
      ],
      "ERC721NonexistentToken(uint256)": [
        {
          "details": "Indicates a `tokenId` whose `owner` is the zero address.",
          "params": {
            "tokenId": "Identifier number of a token."
          }
        }
      ]
    },
    "events": {
      "Approval(address,address,uint256)": {
        "details": "Emitted when `owner` enables `approved` to manage the `tokenId` token."
      },
      "ApprovalForAll(address,address,bool)": {
        "details": "Emitted when `owner` enables or disables (`approved`) `operator` to manage all of its assets."
      },
      "Locked(uint256)": {
        "details": "If a token is minted and the status is locked, this event should be emitted.",
        "params": {
          "tokenId": "The identifier for a token."
        }
      },
      "SBTCreated(address,uint256,uint256)": {
        "params": {
          "issueDate": "Data di emissione del token",
          "owner": "Indirizzo del proprietario del nuovo SBT",
          "tokenId": "ID del token creato"
        }
      },
      "Transfer(address,address,uint256)": {
        "details": "Emitted when `tokenId` token is transferred from `from` to `to`."
      },
      "Unlocked(uint256)": {
        "details": "If a token is minted and the status is unlocked, this event should be emitted.",
        "params": {
          "tokenId": "The identifier for a token."
        }
      }
    },
    "kind": "dev",
    "methods": {
      "balanceOf(address)": {
        "details": "See {IERC721-balanceOf}."
      },
      "constructor": {
        "details": "Inizializza il contratto padre ERC5192 con i parametri forniti"
      },
      "createSBT((uint256,string,string,uint256,string))": {
        "details": "Reverte con AlreadyOwned se il mittente possiede gi un SBTReverte con InvalidData se i dati essenziali sono vuotiCrea un token nel contratto corrente, memorizza i dati e incrementa il contatoreAggiunge automaticamente la data di emissione al momento della creazione",
        "params": {
          "_data": "Struttura SBTData contenente le informazioni del token (issueDate verr sovrascritto)"
        }
      },
      "getApproved(uint256)": {
        "details": "See {IERC721-getApproved}."
      },
      "getSBTData(address)": {
        "details": "Restituisce una struttura vuota se l'indirizzo non possiede alcun SBT",
        "params": {
          "owner": "Indirizzo del proprietario del SBT"
        },
        "returns": {
          "_0": "SBTData Struttura contenente tutti i dati del SBT"
        }
      },
      "isApprovedForAll(address,address)": {
        "details": "See {IERC721-isApprovedForAll}."
      },
      "locked(uint256)": {
        "details": "SBTs assigned to zero address are considered invalid, and queries about them do throw.",
        "params": {
          "tokenId": "The identifier for an SBT."
        }
      },
      "name()": {
        "details": "See {IERC721Metadata-name}."
      },
      "ownerOf(uint256)": {
        "details": "See {IERC721-ownerOf}."
      },
      "safeTransferFrom(address,address,uint256)": {
        "details": "See {IERC721-safeTransferFrom}."
      },
      "safeTransferFrom(address,address,uint256,bytes)": {
        "details": "See {IERC721-safeTransferFrom}."
      },
      "setApprovalForAll(address,bool)": {
        "details": "See {IERC721-setApprovalForAll}."
      },
      "supportsInterface(bytes4)": {
        "details": "See {IERC165-supportsInterface}."
      },
      "symbol()": {
        "details": "See {IERC721Metadata-symbol}."
      },
      "tokenURI(uint256)": {
        "details": "See {IERC721Metadata-tokenURI}."
      },
      "totalSupply()": {
        "returns": {
          "_0": "uint256 Numero totale di SBT creati"
        }
      },
      "transferFrom(address,address,uint256)": {
        "details": "See {IERC721-transferFrom}."
      }
    },
    "stateVariables": {
      "hasSBT": {
        "details": "Restituisce 0 se l'indirizzo non possiede alcun SBT"
      },
      "sbts": {
        "details": "Contiene le informazioni personali associate al token"
      }
    },
    "title": "SBT - Soulbound Token",
    "version": 1
  },
  "userdoc": {
    "errors": {
      "AlreadyOwned()": [
        {
          "notice": "Errore emesso quando un indirizzo tenta di creare un SBT ma ne possiede gi uno"
        }
      ],
      "InvalidData()": [
        {
          "notice": "Errore emesso quando si tenta di creare un SBT con dati vuoti"
        }
      ]
    },
    "events": {
      "Locked(uint256)": {
        "notice": "Emitted when the locking status is changed to locked."
      },
      "SBTCreated(address,uint256,uint256)": {
        "notice": "Evento emesso quando viene creato un nuovo SBT"
      },
      "Unlocked(uint256)": {
        "notice": "Emitted when the locking status is changed to unlocked."
      }
    },
    "kind": "user",
    "methods": {
      "constructor": {
        "notice": "Costruttore del contratto SBT"
      },
      "createSBT((uint256,string,string,uint256,string))": {
        "notice": "Crea un nuovo SBT con i dati forniti per il mittente della transazione"
      },
      "getSBTData(address)": {
        "notice": "Restituisce i dati completi di un SBT dato l'indirizzo del proprietario"
      },
      "hasSBT(address)": {
        "notice": "Mapping che associa ogni indirizzo all'ID del suo SBT"
      },
      "locked(uint256)": {
        "notice": "Returns the locking status of an Soulbound Token"
      },
      "sbts(address)": {
        "notice": "Mapping che associa ogni indirizzo ai dati del suo SBT"
      },
      "totalSupply()": {
        "notice": "Restituisce il numero totale di SBT emessi"
      }
    },
    "notice": "Implementazione di un token soulbound per E-Voting (non trasferibile) basato su ERC5192",
    "version": 1
  },
  "storageLayout": {
    "storage": [
      {
        "astId": 169,
        "contract": "contracts/SBT.sol:SBT",
        "label": "_name",
        "offset": 0,
        "slot": "0",
        "type": "t_string_storage"
      },
      {
        "astId": 171,
        "contract": "contracts/SBT.sol:SBT",
        "label": "_symbol",
        "offset": 0,
        "slot": "1",
        "type": "t_string_storage"
      },
      {
        "astId": 175,
        "contract": "contracts/SBT.sol:SBT",
        "label": "_owners",
        "offset": 0,
        "slot": "2",
        "type": "t_mapping(t_uint256,t_address)"
      },
      {
        "astId": 179,
        "contract": "contracts/SBT.sol:SBT",
        "label": "_balances",
        "offset": 0,
        "slot": "3",
        "type": "t_mapping(t_address,t_uint256)"
      },
      {
        "astId": 183,
        "contract": "contracts/SBT.sol:SBT",
        "label": "_tokenApprovals",
        "offset": 0,
        "slot": "4",
        "type": "t_mapping(t_uint256,t_address)"
      },
      {
        "astId": 189,
        "contract": "contracts/SBT.sol:SBT",
        "label": "_operatorApprovals",
        "offset": 0,
        "slot": "5",
        "type": "t_mapping(t_address,t_mapping(t_address,t_bool))"
      },
      {
        "astId": 2799,
        "contract": "contracts/SBT.sol:SBT",
        "label": "isLocked",
        "offset": 0,
        "slot": "6",
        "type": "t_bool"
      },
      {
        "astId": 2969,
        "contract": "contracts/SBT.sol:SBT",
        "label": "nextSBTId",
        "offset": 0,
        "slot": "7",
        "type": "t_uint256"
      },
      {
        "astId": 2974,
        "contract": "contracts/SBT.sol:SBT",
        "label": "hasSBT",
        "offset": 0,
        "slot": "8",
        "type": "t_mapping(t_address,t_uint256)"
      },
      {
        "astId": 2980,
        "contract": "contracts/SBT.sol:SBT",
        "label": "sbts",
        "offset": 0,
        "slot": "9",
        "type": "t_mapping(t_address,t_struct(SBTData)3132_storage)"
      }
    ],
    "types": {
      "t_address": {
        "encoding": "inplace",
        "label": "address",
        "numberOfBytes": "20"
      },
      "t_bool": {
        "encoding": "inplace",
        "label": "bool",
        "numberOfBytes": "1"
      },
      "t_mapping(t_address,t_bool)": {
        "encoding": "mapping",
        "key": "t_address",
        "label": "mapping(address => bool)",
        "numberOfBytes": "32",
        "value": "t_bool"
      },
      "t_mapping(t_address,t_mapping(t_address,t_bool))": {
        "encoding": "mapping",
        "key": "t_address",
        "label": "mapping(address => mapping(address => bool))",
        "numberOfBytes": "32",
        "value": "t_mapping(t_address,t_bool)"
      },
      "t_mapping(t_address,t_struct(SBTData)3132_storage)": {
        "encoding": "mapping",
        "key": "t_address",
        "label": "mapping(address => struct ISBT.SBTData)",
        "numberOfBytes": "32",
        "value": "t_struct(SBTData)3132_storage"
      },
      "t_mapping(t_address,t_uint256)": {
        "encoding": "mapping",
        "key": "t_address",
        "label": "mapping(address => uint256)",
        "numberOfBytes": "32",
        "value": "t_uint256"
      },
      "t_mapping(t_uint256,t_address)": {
        "encoding": "mapping",
        "key": "t_uint256",
        "label": "mapping(uint256 => address)",
        "numberOfBytes": "32",
        "value": "t_address"
      },
      "t_string_storage": {
        "encoding": "bytes",
        "label": "string",
        "numberOfBytes": "32"
      },
      "t_struct(SBTData)3132_storage": {
        "encoding": "inplace",
        "label": "struct ISBT.SBTData",
        "members": [
          {
            "astId": 3123,
            "contract": "contracts/SBT.sol:SBT",
            "label": "issueDate",
            "offset": 0,
            "slot": "0",
            "type": "t_uint256"
          },
          {
            "astId": 3125,
            "contract": "contracts/SBT.sol:SBT",
            "label": "name",
            "offset": 0,
            "slot": "1",
            "type": "t_string_storage"
          },
          {
            "astId": 3127,
            "contract": "contracts/SBT.sol:SBT",
            "label": "surname",
            "offset": 0,
            "slot": "2",
            "type": "t_string_storage"
          },
          {
            "astId": 3129,
            "contract": "contracts/SBT.sol:SBT",
            "label": "birthDate",
            "offset": 0,
            "slot": "3",
            "type": "t_uint256"
          },
          {
            "astId": 3131,
            "contract": "contracts/SBT.sol:SBT",
            "label": "birthPlace",
            "offset": 0,
            "slot": "4",
            "type": "t_string_storage"
          }
        ],
        "numberOfBytes": "160"
      },
      "t_uint256": {
        "encoding": "inplace",
        "label": "uint256",
        "numberOfBytes": "32"
      }
    }
  }
}